S00F00004F6E5F544553542E73726563B9
S11300000C94C1000C94E0000C94E0000C94E0000B
S11300100C94E0000C94E0000C94E0000C94E000DC
S11300200C94E0000C94E0000C94E0000C94E000CC
S11300300C94E0000C94E0000C94E0000C94E000BC
S11300400C94E0000C94E0000C94E0000C94E000AC
S11300500C94E0000C94E0000C94E0000C94E0009C
S11300600C94E0000C94E0000C94E0000C94E0008C
S11300700C94E0000C94F2020C94E0000C94E00068
S11300800C94E0000C94E0000C94E0000C94E0006C
S11300900C94E0000C94E0000C94E0000C94E0005C
S11300A00C94E0000C94E0000C94E0000C94E0004C
S11300B00C94E0000C94E0000C94E0000C94E0003C
S11300C00C94E0000C94E0000C94E0000C94E0002C
S11300D00C94E0000C94E0000C94E0000C94E0001C
S11300E00C94E0000C94E0000C94E0000C94E0000C
S11300F00C94E0000C94E0000C94E0000C94E000FC
S113010007634236B79BD8A71A39685618AEBAABFC
S1130110558C1D3CB7CC5763BD6DEDFD753EF61790
S11301207231BF000000803F08000000BE922449E5
S1130130123EABAAAA2ABECDCCCC4C3E0000008015
S1130140BEABAAAAAA3E00000000BF000000803F88
S11301500000000000084178D3BB4387D1133D1948
S11301600E3CC3BD4282AD2B3E68EC8276BED98F75
S1130170E1A93E4C80EFFFBE01C4FF7F3F000000B9
S1130180000011241FBECFEFCDBFDFE7DEBF10E4B8
S1130190A0E0B0E4E4E7F0E100E00BBF02C00790A8
S11301A00D92A834B107D9F720E4A8E4B0E401C063
S11301B01D92AF38B207E1F70E945B030C94380834
S11301C00C9400006150710920E030E00EC0DC01A5
S11301D0A20FB31F4C91FC01E60FF71F50815C93F3
S11301E040832F5F3F4F61507109261737077CF317
S11301F00895CF92DF92EF92FF920F931F93CF93C4
S1130200DF938A016901C0E0D0E011C07801EC0EEF
S1130210FD1E2AE030E040E050E00E949607605D59
S1130220F7016083622F732F842F952F2196611518
S113023071058105910551F706C0F801EC0FFD1F0A
S113024080E380832196CC15DD05BCF3BE01C80193
S11302500E94E200F801EC0FFD1F1082CE01DF9135
S1130260CF911F910F91FF90EF90DF90CF90089561
S11302708F929F92AF92BF92CF92DF92EF92FF92B2
S11302800F931F93CF93DF934B015C018A01E90124
S11302900E94B7046B01770FEE08FF08C701B6018F
S11302A00E94EF049B01AC01C501B4010E94D30379
S11302B04B015C0120E030E0A801C701B6010E94B7
S11302C0F9007C01209749F1F801E80FF91F8EE24B
S11302D08083BE010D2E000C880B990B0E94EF0445
S11302E09B01AC0160E070E080E291E40E941106A1
S11302F09B01AC01C501B4010E94A4052FEFE21AD1
S1130300F20A0E94B704A8014E0D5F1D072E000CCF
S1130310880B990B9E010E94F900DF91CF911F91E8
S11303200F91FF90EF90DF90CF90BF90AF909F9090
S11303308F900895E0E4F4E020812D7F20832081D4
S113034021602083BC0180E090E00E94ED0420E065
S113035030E040E851E40E94A4059B01AC0160E058
S113036074E284E79DE40E94450420E030E040E02C
S11303705FE30E94D4030E94BE04E0E2F8E06087D9
S113038071878681806C868308959091240895FFF7
S1130390FCCF8093220808950F931F93CF93DF938C
S11303A08C01C0E0D0E007C0F801EC0FFD1F808194
S11303B00E94C5012196F80101900020E9F73197C8
S11303C0E01BF10BCE17DF0778F38AE00E94C5012A
S11303D0DF91CF911F910F91089520E030E04BE51C
S11303E050E40E94F9008BE590E40E94CC0108954A
S11303F09A014BE550E40E9438018BE590E40E9499
S1130400CC01089585E88093A000E0E0F6E081E067
S113041082838083089581E080930A0608958093FF
S113042008060E940B0280910D0680FFFCCF80918C
S11304301006909111060895E0E0F4E08481877F2E
S113044084838091080482FDFCCF90E040E050E07A
S1130450BA011CC0E0E0F4E084818860848326E073
S11304602A95F1F700C0440F551F661F771F84813A
S1130470877F848386E08A95F1F700C0808582FFB8
S113048004C04F5F5F4F6F4F7F4F9F5F983110F3F2
S1130490E0E0F4E0848188608483CB01BA01805871
S11304A02481277F24830895E0E0F4E0868180643A
S11304B086838581806185838FE19EE40197F1F7CE
S11304C000C000008681806186838FE19EE40197ED
S11304D0F1F700C000000895CF92DF92EF92FF92EF
S11304E0CF93DF93C1E0D0E020C083E00E940F02ED
S11304F080938D4090938E40BC01990F880B990B8B
S11305000E94EF0420915740309158404091594047
S113051050915A400E94D4036093574070935840BE
S11305208093594090935A402196CB30D105ECF2F8
S113053060915740709158408091594090915A4031
S113054020E030E040E251E40E94450460935740CB
S1130550709358408093594090935A402DEC35E065
S11305604BE05CE30E94A4052CEB38EF46EF50E42B
S11305700E94D4036B017C016093534070935440F8
S1130580809355409093564020E030E048EB51E48E
S11305900E94400488235CF480E090E40E94CC0133
S11305A084E190E0809351409093524014C020E045
S11305B030E048EE51E4C701B6010E949F051816C9
S11305C054F480E190E40E94CC018CE390E08093A9
S11305D0514090935240DF91CF91FF90EF90DF9084
S11305E0CF9008951F920F920FB60F9211240BB65D
S11305F00F922F933F934F935F936F937F938F93B8
S11306009F93AF93BF93EF93FF9380914904882303
S1130610ACF480915040882339F01092504080E22D
S113062090E40E94CC0105C081E0809350400E9478
S11306306C02E0E4F4E0818580688187FF91EF91AA
S1130640BF91AF919F918F917F916F915F914F91E6
S11306503F912F910F900BBE0F900FBE0F901F90E4
S113066018958091480488231CF41092504007C0C8
S11306708091480488231CF081E08093504060916D
S1130680504070E080E090E00E94ED010895E0E0C9
S1130690F4E080818065808380818B7F808380818A
S11306A088608083E0E4F4E080818F7780838789A9
S11306B08160878B0895789480E895E20E949A017E
S11306C00E9402020E9431030E9447030E945402C6
S11306D00E941C026D557D46804891090E94ED04DC
S11306E028EA35ED48E15CE30E94A4056B017C0136
S11306F0609348407093494080934A4090934B40A4
S1130700C0E0D0E019C060914C4070914D408091A0
S11307104E4090914F400E94ED04A70196010E9423
S1130720D4030E94BE0460934C4070934D40809368
S11307304E4090934F402196C530D10524F36091EB
S11307404C4070914D4080914E4090914F402DEC23
S11307503CEC4CEC5CEC0E94B50700E20E94E20722
S1130760822E932EA42EB52ED501C401B695A7953D
S113077097958795B695A79597958795BC01CD01D3
S11307806E5571408109910960934C4070934D40BE
S113079080934E4090934F400E94ED0442E050E01D
S11307A00E94F80193CF5058BB27AA270E94EB035D
S11307B00C9465050E94570538F00E945E0520F0F0
S11307C039F49F3F19F426F40C9454050EF4E09583
S11307D0E7FB0C944E05E92F0E94760558F3BA17EF
S11307E0620773078407950720F079F4A6F50C9443
S11307F098050EF4E0950B2EBA2FA02D0B01B9012C
S113080090010C01CA01A0011124FF27591B99F082
S1130810593F50F4503E68F11A16F040A22F232F8E
S1130820342F4427585FF3CF469537952795A795DE
S1130830F0405395C9F77EF41F16BA0B620B730B85
S1130840840BBAF09150A1F0FF0FBB1F661F771FF6
S1130850881FC2F70EC0BA0F621F731F841F48F4AB
S1130860879577956795B795F7959E3F08F0B0CF34
S11308709395880F08F09927EE0F9795879508951B
S11308800E942A0508F481E008950E9459040C94FA
S113089065050E945E0558F00E94570540F029F452
S11308A05F3F29F00C944E0551110C9499050C945A
S11308B054050E94760568F39923B1F3552391F307
S11308C0951B550BBB27AA2762177307840738F0BB
S11308D09F5F5F4F220F331F441FAA1FA9F335D018
S11308E00E2E3AF0E0E832D091505040E695001CCC
S11308F0CAF72BD0FE2F29D0660F771F881FBB1F86
S1130900261737074807AB07B0E809F0BB0B802D63
S1130910BF01FF2793585F4F3AF09E3F510578F08F
S11309200C944E050C9499055F3FE4F3983ED4F380
S1130930869577956795B795F7959F5FC9F7880F63
S1130940911D9695879597F90895E1E0660F771FB5
S1130950881FBB1F621773078407BA0720F0621B46
S1130960730B840BBA0BEE1F88F7E09508950E9471
S1130970BE046894B1110C94990508950E947E05F3
S113098088F09F5798F0B92F9927B751B0F0E1F04C
S1130990660F771F881F991F1AF0BA95C9F714C0FC
S11309A0B13091F00E949805B1E008950C94980537
S11309B0672F782F8827B85F39F0B93FCCF3869535
S11309C077956795B395D9F73EF490958095709592
S11309D061957F4F8F4F9F4F0895E89409C097FB0F
S11309E03EF490958095709561957F4F8F4F9F4F02
S11309F09923A9F0F92F96E9BB279395F695879546
S1130A0077956795B795F111F8CFFAF4BB0F11F408
S1130A1060FF1BC06F5F7F4F8F4F9F4F16C08823AF
S1130A2011F096E911C0772321F09EE8872F762FE5
S1130A3005C0662371F096E8862F70E060E02AF026
S1130A409A95660F771F881FDAF7880F9695879512
S1130A5097F90895990F0008550FAA0BE0E8FEEFE7
S1130A6016161706E807F907C0F012161306E4076E
S1130A70F50798F0621B730B840B950B39F40A2667
S1130A8061F0232B242B252B21F408950A2609F445
S1130A90A140A6958FEF811D811D089597F99F6749
S1130AA080E870E060E008959FEF80EC08950024F2
S1130AB00A941616170618060906089500240A94BF
S1130AC012161306140605060895092E0394000C45
S1130AD011F4882352F0BB0F40F4BF2B11F460FFD4
S1130AE004C06F5F7F4F8F4F9F4F089557FD9058FD
S1130AF0440F551F59F05F3F71F04795880F97FBDE
S1130B00991F61F09F3F79F0879508951216130697
S1130B101406551FF2CF4695F1DF08C016161706C6
S1130B201806991FF1CF86957105610508940895FB
S1130B30E894BB2766277727CB0197F908950E948D
S1130B402A0508F48FEF08950E94B7050C946505F3
S1130B500E94570538F00E945E0520F0952311F09D
S1130B600C944E050C94540511240C9499050E9480
S1130B70760570F3959FC1F3950F50E0551F629F62
S1130B80F001729FBB27F00DB11D639FAA27F00DE2
S1130B90B11DAA1F649F6627B00DA11D661F829F09
S1130BA02227B00DA11D621F739FB00DA11D621FEE
S1130BB0839FA00D611D221F749F3327A00D611D0B
S1130BC0231F849F600D211D822F762F6A2F1124ED
S1130BD09F5750409AF0F1F088234AF0EE0FFF1F20
S1130BE0BB1F661F771F881F91505040A9F79E3F77
S1130BF0510580F00C944E050C9499055F3FE4F385
S1130C00983ED4F3869577956795B795F795E795CC
S1130C109F5FC1F7FE2B880F911D9695879597F9D5
S1130C200895FA01EE0FFF1F309621053105A1F159
S1130C306115710561F48038BFE39B0749F168943D
S1130C409038810561F08038BFEF9B0741F099230C
S1130C504AF5FF3FE1053105210519F1E8940894AF
S1130C60E795D901AA2329F4AB2FBE2FF85FD0F35F
S1130C7010C0FF5F70F4A695E0F7F73950F019F053
S1130C80FF3A38F49F779F930DD00F9007FC90584C
S1130C90089546F00C94540560E070E080E89FE30A
S1130CA008954FE79F775F934F933F932F930E944D
S1130CB00C072F913F914F915F910E94A4050C94D2
S1130CC0690629F416F00C944E050C9498050C94BE
S1130CD054050E947E05A8F39638A0F707F80F92F2
S1130CE0E8942BE33AEA48EB5FE70E94BA050F92D7
S1130CF00F920F924DB75EB70F920E945407E0E037
S1130D00F1E00E949B064F915F91EF91FF91E59571
S1130D10EE1FFF1F49F0FE57E0684427EE0F441F03
S1130D20FA95E1F74195550B0E94CE060F9007FE08
S1130D300C94C2060895DF93CF931F930F93FF92F1
S1130D40EF92DF927B018C01689406C0DA2EEF01EA
S1130D500E94B705FE01E894A5912591359145912E
S1130D605591A6F3EF010E94EB03FE019701A80140
S1130D70DA9469F7DF90EF90FF900F911F91CF9174
S1130D80DF9108959B01AC0160E070E080E89FE38F
S1130D900C9445040C944E050C9488070E947E051F
S1130DA0D8F39923C9F3940F511DA3F391505040E4
S1130DB094F059F0882332F0660F771F881F915002
S1130DC05040C1F79E3F51052CF7880F911D969511
S1130DD0879597F908955F3FACF0983E9CF0BB2748
S1130DE0869577956795B79508F4B1609395C1F7A3
S1130DF0BB0F58F711F460FFE8CF6F5F7F4F8F4F41
S1130E009F4FE3CF0C94990516F00C9488070C942B
S1130E10540568940C944E050E947E05A8F399230A
S1130E20C1F3AEF3DF93CF931F930F93FF92C92FB8
S1130E30DD2788232AF02197660F771F881FDAF7AA
S1130E4020E030E040E85FEB9FE3883920F0803E0B
S1130E5038F021968F770E94D403E8E2F1E004C0D1
S1130E600E94D403E5E5F1E00E949B068B01BE01DC
S1130E70EC01FB2E6F5771097595771F880B990B41
S1130E800E94EF0428E132E741E35FE30E94B705E3
S1130E90AF2D9801AE01FF900F911F91CF91DF917B
S1130EA00E94EB030C946505FA01DC01AA0FBB1F39
S1130EB09B01AC01BF5728F42227332744275078DD
S1130EC020C0B75190F4AB2F002446953795279551
S1130ED0011CA395D2F3002071F0220F331F441F8D
S1130EE0B395DAF30ED00C94D30361307105A0E806
S1130EF08A07B94630F49B01AC0166277727882717
S1130F009078309621F0208331834283538308956F
S1130F109F3F31F0915020F4879577956795B79569
S1130F20880F911D9695879597F90895052E97FB3F
S1130F301EF400940E94AD0757FD07D00E94FE07DF
S1130F4007FC03D04EF40C94AD07509540953095B2
S1130F5021953F4F4F4F5F4F089590958095709521
S1130F6061957F4F8F4F9F4F0895E894DF93CF9300
S1130F70FC01DB010E9420087F936F93E9019A0131
S1130F80AC01BF93AF933F932F93DF010E942008DE
S1130F9026F46C1B7D0B820B930B9E01EB01FC0171
S1130FA00E942F08AF91BF912F913F910E942F086B
S1130FB0BE01CF01F9012F913F91CF91DF910895A7
S1130FC097FB10F8169400080F93083098F0085017
S1130FD0232F342F452F562F672F782F892F902DAD
S1130FE0F4CF059497958795779567955795479589
S1130FF0379527950A95AAF70F910895A1E21A2E1D
S1131000AA1BBB1BFD010DC0AA1FBB1FEE1FFF1FA8
S1131010A217B307E407F50720F0A21BB30BE40BF8
S1131020F50B661F771F881F991F1A9469F760953F
S11310307095809590959B01AC01BD01CF010895F9
S1131040A29FB001B39FC001A39F700D811D112405
S1131050911DB29F700D811D1124911D08950E9450
S11310602008460F571FC81FD91F08F4319608954A
S1071070F894FFCF1E
S11310743230204D6C2064657465637465640A00C1
S11310843630204D6C2064657465637465640A00AD
S113109457616974696E6720666F72205379726947
S11310A46E67650A006F63636C7573696F6E5F6462
S10B10B4657465637465640052
S9030000FC
